{
  "contractName": "Whitelist",
  "abi": [
    {
      "constant": true,
      "inputs": [
        {
          "name": "",
          "type": "address"
        }
      ],
      "name": "isWhitelisted",
      "outputs": [
        {
          "name": "",
          "type": "bool"
        }
      ],
      "payable": false,
      "stateMutability": "view",
      "type": "function"
    },
    {
      "constant": false,
      "inputs": [],
      "name": "renounceOwnership",
      "outputs": [],
      "payable": false,
      "stateMutability": "nonpayable",
      "type": "function"
    },
    {
      "constant": true,
      "inputs": [],
      "name": "owner",
      "outputs": [
        {
          "name": "",
          "type": "address"
        }
      ],
      "payable": false,
      "stateMutability": "view",
      "type": "function"
    },
    {
      "constant": true,
      "inputs": [],
      "name": "isOwner",
      "outputs": [
        {
          "name": "",
          "type": "bool"
        }
      ],
      "payable": false,
      "stateMutability": "view",
      "type": "function"
    },
    {
      "constant": false,
      "inputs": [
        {
          "name": "newOwner",
          "type": "address"
        }
      ],
      "name": "transferOwnership",
      "outputs": [],
      "payable": false,
      "stateMutability": "nonpayable",
      "type": "function"
    },
    {
      "anonymous": false,
      "inputs": [
        {
          "indexed": false,
          "name": "users",
          "type": "address[]"
        }
      ],
      "name": "UsersAddedToWhitelist",
      "type": "event"
    },
    {
      "anonymous": false,
      "inputs": [
        {
          "indexed": false,
          "name": "users",
          "type": "address[]"
        }
      ],
      "name": "UsersRemovedFromWhitelist",
      "type": "event"
    },
    {
      "anonymous": false,
      "inputs": [
        {
          "indexed": true,
          "name": "previousOwner",
          "type": "address"
        },
        {
          "indexed": true,
          "name": "newOwner",
          "type": "address"
        }
      ],
      "name": "OwnershipTransferred",
      "type": "event"
    },
    {
      "constant": false,
      "inputs": [
        {
          "name": "users",
          "type": "address[]"
        }
      ],
      "name": "addToWhitelist",
      "outputs": [],
      "payable": false,
      "stateMutability": "nonpayable",
      "type": "function"
    },
    {
      "constant": false,
      "inputs": [
        {
          "name": "users",
          "type": "address[]"
        }
      ],
      "name": "removeFromWhitelist",
      "outputs": [],
      "payable": false,
      "stateMutability": "nonpayable",
      "type": "function"
    }
  ],
  "bytecode": "0x60806040819052600080546001600160a01b03191633178082556001600160a01b0316917f8be0079c531659141344cd1fd0a4f28419497f9722a3daafe3b4186f6b6457e0908290a3610635806100576000396000f3fe608060405234801561001057600080fd5b506004361061007d5760003560e01c80637f6497831161005b5780637f649783146101365780638da5cb5b146101a65780638f32d59b146101ca578063f2fde38b146101d25761007d565b80633af32abf14610082578063548db174146100bc578063715018a61461012e575b600080fd5b6100a86004803603602081101561009857600080fd5b50356001600160a01b03166101f8565b604080519115158252519081900360200190f35b61012c600480360360208110156100d257600080fd5b8101906020810181356401000000008111156100ed57600080fd5b8201836020820111156100ff57600080fd5b8035906020019184602083028401116401000000008311171561012157600080fd5b50909250905061020d565b005b61012c610312565b61012c6004803603602081101561014c57600080fd5b81019060208101813564010000000081111561016757600080fd5b82018360208201111561017957600080fd5b8035906020019184602083028401116401000000008311171561019b57600080fd5b5090925090506103a3565b6101ae6104a7565b604080516001600160a01b039092168252519081900360200190f35b6100a86104b6565b61012c600480360360208110156101e857600080fd5b50356001600160a01b03166104c7565b60016020526000908152604090205460ff1681565b6102156104b6565b610254576040805162461bcd60e51b815260206004820181905260248201526000805160206105e1833981519152604482015290519081900360640190fd5b60005b818110156102aa5760006001600085858581811061027157fe5b602090810292909201356001600160a01b0316835250810191909152604001600020805460ff1916911515919091179055600101610257565b507f980469cd56680c471176aaf1931063250267d2044b92e69bd162f7f4bafba861828260405180806020018281038252848482818152602001925060200280828437600083820152604051601f909101601f19169092018290039550909350505050a15050565b61031a6104b6565b610359576040805162461bcd60e51b815260206004820181905260248201526000805160206105e1833981519152604482015290519081900360640190fd5b600080546040516001600160a01b03909116907f8be0079c531659141344cd1fd0a4f28419497f9722a3daafe3b4186f6b6457e0908390a3600080546001600160a01b0319169055565b6103ab6104b6565b6103ea576040805162461bcd60e51b815260206004820181905260248201526000805160206105e1833981519152604482015290519081900360640190fd5b60005b8181101561043f57600180600085858581811061040657fe5b602090810292909201356001600160a01b0316835250810191909152604001600020805460ff19169115159190911790556001016103ed565b507f571817b02d15d247d0d4961fca494acd141f951ca62623d639cbbcd882a5290d828260405180806020018281038252848482818152602001925060200280828437600083820152604051601f909101601f19169092018290039550909350505050a15050565b6000546001600160a01b031690565b6000546001600160a01b0316331490565b6104cf6104b6565b61050e576040805162461bcd60e51b815260206004820181905260248201526000805160206105e1833981519152604482015290519081900360640190fd5b6105178161051a565b50565b6001600160a01b03811661055f5760405162461bcd60e51b81526004018080602001828103825260268152602001806105bb6026913960400191505060405180910390fd5b600080546040516001600160a01b03808516939216917f8be0079c531659141344cd1fd0a4f28419497f9722a3daafe3b4186f6b6457e091a3600080546001600160a01b0319166001600160a01b039290921691909117905556fe4f776e61626c653a206e6577206f776e657220697320746865207a65726f20616464726573734f776e61626c653a2063616c6c6572206973206e6f7420746865206f776e6572a265627a7a7230582065e29082cbf582aac58db6fba474fb651e5fea90218442d25a05c50c733b088d64736f6c634300050a0032",
  "source": "pragma solidity ^0.5.1;\n\nimport 'openzeppelin-solidity/contracts/ownership/Ownable.sol'; \n\n/// @title Whitelist for adding/removing users from a whitelist\n/// @author Anton Shtylman - @InfiniteStyles\ncontract Whitelist is Ownable {\n\n  event UsersAddedToWhitelist(address[] users);\n  event UsersRemovedFromWhitelist(address[] users);\n\n  mapping(address => bool) public isWhitelisted;\n\n  function addToWhitelist(address[] calldata users) onlyOwner external {\n    for (uint i = 0; i < users.length; i++) {\n      isWhitelisted[users[i]] = true;\n    }\n    emit UsersAddedToWhitelist(users);\n  }\n\n  function removeFromWhitelist(address[] calldata users) onlyOwner external {\n    for (uint i = 0; i < users.length; i++) {\n      isWhitelisted[users[i]] = false;\n    }\n    emit UsersRemovedFromWhitelist(users);\n  }\n}\n",
  "sourcePath": "@gnosis.pm/conditional-tokens-market-makers/contracts/Whitelist.sol",
  "compiler": {
    "name": "solc",
    "version": "0.5.10+commit.5a6ea5b1.Emscripten.clang"
  },
  "schemaVersion": "3.4.7",
  "updatedAt": "2022-08-10T23:38:36.497Z",
  "networkType": "ethereum",
  "devdoc": {
    "author": "Anton Shtylman - @InfiniteStyles",
    "methods": {
      "isOwner()": {
        "details": "Returns true if the caller is the current owner."
      },
      "owner()": {
        "details": "Returns the address of the current owner."
      },
      "renounceOwnership()": {
        "details": "Leaves the contract without owner. It will not be possible to call `onlyOwner` functions anymore. Can only be called by the current owner.     * > Note: Renouncing ownership will leave the contract without an owner, thereby removing any functionality that is only available to the owner."
      },
      "transferOwnership(address)": {
        "details": "Transfers ownership of the contract to a new account (`newOwner`). Can only be called by the current owner."
      }
    },
    "title": "Whitelist for adding/removing users from a whitelist"
  },
  "userdoc": {
    "methods": {}
  }
}